{
  "contractName": "TodoList",
  "abi": [
    {
      "inputs": [],
      "payable": false,
      "stateMutability": "nonpayable",
      "type": "constructor"
    },
    {
      "anonymous": false,
      "inputs": [
        {
          "indexed": false,
          "internalType": "uint256",
          "name": "id",
          "type": "uint256"
        },
        {
          "indexed": false,
          "internalType": "bool",
          "name": "completed",
          "type": "bool"
        }
      ],
      "name": "TaskCompleted",
      "type": "event"
    },
    {
      "anonymous": false,
      "inputs": [
        {
          "indexed": false,
          "internalType": "uint256",
          "name": "id",
          "type": "uint256"
        },
        {
          "indexed": false,
          "internalType": "string",
          "name": "content",
          "type": "string"
        },
        {
          "indexed": false,
          "internalType": "bool",
          "name": "completed",
          "type": "bool"
        }
      ],
      "name": "TaskCreated",
      "type": "event"
    },
    {
      "anonymous": false,
      "inputs": [
        {
          "indexed": false,
          "internalType": "uint256",
          "name": "id",
          "type": "uint256"
        },
        {
          "indexed": false,
          "internalType": "string",
          "name": "content",
          "type": "string"
        }
      ],
      "name": "TaskDeleted",
      "type": "event"
    },
    {
      "constant": true,
      "inputs": [],
      "name": "taskCount",
      "outputs": [
        {
          "internalType": "uint256",
          "name": "",
          "type": "uint256"
        }
      ],
      "payable": false,
      "stateMutability": "view",
      "type": "function"
    },
    {
      "constant": true,
      "inputs": [
        {
          "internalType": "uint256",
          "name": "",
          "type": "uint256"
        }
      ],
      "name": "tasks",
      "outputs": [
        {
          "internalType": "uint256",
          "name": "id",
          "type": "uint256"
        },
        {
          "internalType": "string",
          "name": "content",
          "type": "string"
        },
        {
          "internalType": "bool",
          "name": "completed",
          "type": "bool"
        }
      ],
      "payable": false,
      "stateMutability": "view",
      "type": "function"
    },
    {
      "constant": false,
      "inputs": [
        {
          "internalType": "string",
          "name": "_content",
          "type": "string"
        }
      ],
      "name": "createTask",
      "outputs": [],
      "payable": false,
      "stateMutability": "nonpayable",
      "type": "function"
    },
    {
      "constant": false,
      "inputs": [
        {
          "internalType": "uint256",
          "name": "_id",
          "type": "uint256"
        }
      ],
      "name": "toggleCompleted",
      "outputs": [],
      "payable": false,
      "stateMutability": "nonpayable",
      "type": "function"
    },
    {
      "constant": false,
      "inputs": [
        {
          "internalType": "uint256",
          "name": "_id",
          "type": "uint256"
        }
      ],
      "name": "deleteTask",
      "outputs": [],
      "payable": false,
      "stateMutability": "nonpayable",
      "type": "function"
    }
  ],
  "bytecode": "0x60806040526000805534801561001457600080fd5b5060408051808201909152600d81526c436865636b206d79207461736b60981b602082015261004b906001600160e01b0361008316565b60408051808201909152600a81526922b0ba102234b73732b960b11b602082015261007e906001600160e01b0361008316565b610242565b60008054600190810180835560408051606081018252828152602080820187815282840187905293865284815291909420845181559151805192936100d0939085019291909101906101a7565b5060408201518160020160006101000a81548160ff0219169083151502179055509050507f05d0fb833127fc08168556d0e7ca9554fc3f6bc843b3b7d2bf1c35aea6bab660600054826000604051808481526020018060200183151515158152602001828103825284818151815260200191508051906020019080838360005b83811015610168578181015183820152602001610150565b50505050905090810190601f1680156101955780820380516001836020036101000a031916815260200191505b5094505050505060405180910390a150565b828054600181600116156101000203166002900490600052602060002090601f016020900481019282601f106101e857805160ff1916838001178555610215565b82800160010185558215610215579182015b828111156102155782518255916020019190600101906101fa565b50610221929150610225565b5090565b61023f91905b80821115610221576000815560010161022b565b90565b61082f806102516000396000f3fe608060405234801561001057600080fd5b50600436106100575760003560e01c8063111002aa1461005c578063455f502414610104578063560f3192146101215780638d9776721461013e578063b6cb58a5146101e5575b600080fd5b6101026004803603602081101561007257600080fd5b81019060208101813564010000000081111561008d57600080fd5b82018360208201111561009f57600080fd5b803590602001918460018302840111640100000000831117156100c157600080fd5b91908080601f0160208091040260200160405190810160405280939291908181526020018383808284376000920191909152509295506101ff945050505050565b005b6101026004803603602081101561011a57600080fd5b5035610323565b6101026004803603602081101561013757600080fd5b5035610483565b61015b6004803603602081101561015457600080fd5b5035610640565b604051808481526020018060200183151515158152602001828103825284818151815260200191508051906020019080838360005b838110156101a8578181015183820152602001610190565b50505050905090810190601f1680156101d55780820380516001836020036101000a031916815260200191505b5094505050505060405180910390f35b6101ed6106ef565b60408051918252519081900360200190f35b600080546001908101808355604080516060810182528281526020808201878152828401879052938652848152919094208451815591518051929361024c939085019291909101906106f5565b5060408201518160020160006101000a81548160ff0219169083151502179055509050507f05d0fb833127fc08168556d0e7ca9554fc3f6bc843b3b7d2bf1c35aea6bab660600054826000604051808481526020018060200183151515158152602001828103825284818151815260200191508051906020019080838360005b838110156102e45781810151838201526020016102cc565b50505050905090810190601f1680156103115780820380516001836020036101000a031916815260200191505b5094505050505060405180910390a150565b61032b610773565b60008281526001602081815260409283902083516060810185528154815281840180548651600296821615610100026000190190911695909504601f810185900485028601850190965285855290949193858401939092908301828280156103d45780601f106103a9576101008083540402835291602001916103d4565b820191906000526020600020905b8154815290600101906020018083116103b757829003601f168201915b50505091835250506002919091015460ff16151560209182015260408083018051159052600085815260018084529190208351815583830151805194955085949193610425938501929101906106f5565b50604091820151600291909101805460ff1916911515919091179055818101518151848152901515602082015281517fe21fa966ca5cd02748c0752352d18c48165e61cb55b4c29cccf924b5a95fcff1929181900390910190a15050565b60008111801561049557506000548111155b61049e57600080fd5b6104a6610773565b60008281526001602081815260409283902083516060810185528154815281840180548651600296821615610100026000190190911695909504601f8101859004850286018501909652858552909491938584019390929083018282801561054f5780601f106105245761010080835404028352916020019161054f565b820191906000526020600020905b81548152906001019060200180831161053257829003601f168201915b50505091835250506002919091015460ff1615156020918201526000848152600191829052604081208181559293509061058b90830182610796565b50600201805460ff191690556020808201516040805185815280840182815283519282019290925282517fa22e3c89596b7c57ffab8fec2bd1b7fb1c990c7daf72f79ca773c33fddfbd38b9487949391606084019185019080838360005b838110156106015781810151838201526020016105e9565b50505050905090810190601f16801561062e5780820380516001836020036101000a031916815260200191505b50935050505060405180910390a15050565b600160208181526000928352604092839020805481840180548651600296821615610100026000190190911695909504601f810185900485028601850190965285855290949193929091908301828280156106dc5780601f106106b1576101008083540402835291602001916106dc565b820191906000526020600020905b8154815290600101906020018083116106bf57829003601f168201915b5050506002909301549192505060ff1683565b60005481565b828054600181600116156101000203166002900490600052602060002090601f016020900481019282601f1061073657805160ff1916838001178555610763565b82800160010185558215610763579182015b82811115610763578251825591602001919060010190610748565b5061076f9291506107dd565b5090565b604051806060016040528060008152602001606081526020016000151581525090565b50805460018160011615610100020316600290046000825580601f106107bc57506107da565b601f0160209004906000526020600020908101906107da91906107dd565b50565b6107f791905b8082111561076f57600081556001016107e3565b9056fea265627a7a7231582069ca6dd0460ebd405d62ee21129eb0520b9abb743aa396276c6b278ce4bce3b864736f6c63430005100032",
  "source": "pragma solidity ^0.5.0;\n\ncontract TodoList {\n  uint public taskCount = 0;\n\n  struct Task {\n    uint id;\n    string content;\n    bool completed;\n  }\n\n  mapping(uint => Task) public tasks;\n\n  event TaskCreated(\n    uint id,\n    string content,\n    bool completed\n  );\n\n  event TaskCompleted(\n    uint id,\n    bool completed\n  );\n\n  event TaskDeleted(\n    uint id,\n    string content\n  );\n\n  constructor() public {\n    createTask(\"Check my task\");\n    createTask(\"Eat Dinner\");\n  }\n\n  function createTask(string memory _content) public {\n    taskCount ++;\n    tasks[taskCount] = Task(taskCount, _content, false);\n    emit TaskCreated(taskCount, _content, false);\n  }\n\n  function toggleCompleted(uint _id) public {\n    Task memory _task = tasks[_id];\n    _task.completed = !_task.completed;\n    tasks[_id] = _task;\n    emit TaskCompleted(_id, _task.completed);\n  }\n\n  function deleteTask(uint _id) public {\n    require(_id > 0 && _id <= taskCount);\n    Task memory _task = tasks[_id];\n    delete tasks[_id];\n    emit TaskDeleted(_id, _task.content);\n  }\n\n}\n",
  "sourcePath": "/Users/hsuan/Downloads/learning/etherium-dapp/eth-todo-list-4-complete-tasks/contracts/TodoList.sol",
  "compiler": {
    "name": "solc",
    "version": "0.5.16+commit.9c3226ce.Emscripten.clang"
  },
  "schemaVersion": "3.4.16",
  "updatedAt": "2025-01-18T18:03:16.744Z",
  "networkType": "ethereum",
  "devdoc": {
    "methods": {}
  },
  "userdoc": {
    "methods": {}
  }
}